:020000041000EA
:1000000000B5324B212058609868022188439860DF
:10001000D860186158612E4B002199600221596106
:100020000121F02299502B49196001219960352056
:1000300000F044F80222904214D00621196600F024
:1000400034F8196E01211966002018661A6600F04E
:100050002CF8196E196E196E052000F02FF8012189
:100060000842F9D1002199601B49196000215960AB
:100070001A491B48016001219960EB211966A021F2
:10008000196600F012F800219960164914480160C1
:100090000121996001BC002800D000471248134993
:1000A000086003C880F30888084703B5996A0420EC
:1000B0000142FBD001200142F8D103BD02B5186610
:1000C0001866FFF7F2FF186E186E02BD00000240BE
:1000D000000000180000070000035F00212200005C
:1000E000F4000018222000A00001001008ED00E03C
:1000F00000000000000000000000000074B24E7A12
:1001000000200420F7010010CB010010CD010010E9
:10011000C9010010C9010010C9010010C901001077
:10012000C9010010C9010010C9010010CF01001061
:10013000C9010010C9010010D1010010D301001045
:10014000C1010010C1010010C1010010C101001067
:10015000C1010010C1010010C1010010C101001057
:10016000C1010010C1010010C1010010C101001047
:10017000C1010010C1010010C1010010C101001037
:10018000C1010010C1010010C1010010C101001027
:10019000C1010010C1010010C1010010C101001017
:1001A000C1010010C1010010C1010010C101001007
:1001B000C1010010C1010010C1010010C1010010F7
:1001C000EFF30580103800BE00BE00BE00BE00BECA
:1001D00000BE00BEF2EB8871D45D0010045E00101A
:1001E0003802001090A31AE71E481F49086006C88D
:1001F00081F3088810471D480068002801D019487D
:10020000F3E70DA40ECC002902D000F012F8F9E7B4
:100210001749184A002000E001C19142FCD116495B
:100220008847164988471649884700BEFDE701C937
:1002300001C29A42FBD37047045E0010C000002048
:10024000B0060020F4630010000004200000042029
:10025000F4630010001004200010042000000000CF
:10026000704700000000000008ED00E0000000D032
:10027000B006002078120020DD290010D502001001
:10028000D5290010F8B5C04606480749091A8B1051
:10029000C90FC91810B5491003D0044B002B00D06A
:1002A000984710BDB0060020B006002000000000F6
:1002B000054B10B5002B03D00449054800E000BFF2
:1002C000FFF7E2FF10BDC04600000000141200203E
:1002D000745B001070B588B002F078FC00F0ACFBE5
:1002E000012000F0B5FB6649664802F0F7FD0621E3
:1002F0000500022000F078FC0621032000F074FCC9
:100300000621042000F070FC00220021042000F0EF
:1003100083FCD02310221B069A62002380220393C1
:10032000F82352025B0200920193C02310221B03A8
:10033000694604A8029302F025FB2B000933EA0169
:100340001B03134304A910226846059302F01AFB0D
:100350004D4B0520039301F08DFD02F08DFA4B49C2
:1003600002F06FFAEC21890502F068FA061C02F02F
:10037000ABFA84B20020002C0DD0200002F07CFAF1
:10038000011C301C02F057FA8721C90502F06DFAF2
:1003900002F09AFAC0B2240400022043394C2A0029
:1003A0006B4600210090200002F0BCFE20001023CC
:1003B0000022002102F062FE200000211023002212
:1003C00002F008FE01222368D02513432360002396
:1003D000236100F0A3F920008024002100F05AF8E6
:1003E0002D060F20240200F029FC012100220F20FD
:1003F000AC6200F011FC0A2001F068FA6D6800217F
:10040000002005F06DF9254206D100F009FA00211F
:10041000012001F08DFDFEE701F068FB00291FD1EE
:10042000FA21890001F04AFF0500194C0120002142
:10043000404204F0CFF900F057FB01F057FB0029D0
:1004400015D0FA220023920001F076FF431B0F2BF8
:10045000ECD923780B4ADB43DBB205001361E5E7F7
:10046000FA220023920001F067FF0500DDE7FA2180
:10047000890001F023FF431B0F2BD7D9E9E7C046C2
:10048000745B0010000020508400110400247449A3
:10049000E0050020024B1860024B19607047C0460F
:1004A0005412002058120020024B1B68D817C01AA3
:1004B000C00F70474C120020014B18787047C0469F
:1004C000741200200B4B1A78824211D05A78824263
:1004D0000ED09A7882420BD0DA78824208D01A790C
:1004E000824205D05B79181A42425041C0B270472F
:1004F0000120FCE7680800200022014B1A707047B9
:100500007412002070B505000C0004F0C9FE06004E
:10051000012800D070BD00222100280004F0D6FE82
:10052000032C01D8064B1E55064A002013680133E0
:10053000136000F08DFA2100280004F0FFFEE9E7C7
:10054000441200204C120020154A10B513680329EC
:1005500008D81448445C002C04D000244454013BC7
:1005600003D41360002B01D010BD1460FF220E4B8A
:100570001A700E4B1A68002A05D000210C4B1B681C
:1005800004339B009950062200210A4802F0F4F936
:100590000022094B01201A7000F05AFAE4E7C04625
:1005A0004C12002044120020E005002054120020CC
:1005B000581200206808002074120020F0B5574639
:1005C0004E464546DE46E0B58FB004000D001700EC
:1005D0001E0004F065FE01280AD02900200004F066
:1005E000ADFE0FB0F0BCBB46B246A946A046F0BD7A
:1005F000072EF2D94348A4460378FF210593437898
:10060000069383780793C378089303790993437912
:100610000A933D4B0D931B781E003C4B1A78904675
:100620005A7891469A789246DA7893461A790192E6
:100630005A7902929A790392DB79BA1C04933B00AF
:1006400008330C950027050018000B921378032B34
:1006500039D9059C9C4212D0069C9C420FD0079C25
:100660009C420CD0089C9C4209D0099C9C4206D01C
:100670000A9C9C4203D0002E01D1771C1E00984595
:1006800001D10124A143994501D10224A1439A45F6
:1006900001D10424A1439B4501D10824A143019C1D
:1006A0009C4201D11024A143029C9C4201D12024F0
:1006B000A143039C9C4201D14024A143049C9C4241
:1006C00001D17F23194001329042BFD128008846D2
:1006D00064460C9D002F01D00D9B1E700B990622C5
:1006E00002F050F940460A4B18700A4B196800296D
:1006F00000D172E7084B1A68C3430432DBB29200A0
:1007000053506AE768080020741200200412002089
:10071000E0050020541200205812002010B5074BAD
:100720001B78AE2B04D0064B064A03CA03C310BD88
:1007300008220549024802F025F9F8E700F01F10E9
:1007400004120020905B001001F01F10092030B54A
:10075000C1B0F722FF21684402F00EF96A46AE23C9
:1007600013706B46234C08222100581C02F00AF932
:10077000EFF3108572B680211F48490105F0B8F9E2
:10078000802269461C48520005F0A2F985F31088C2
:100790001A4B00201B78AE2B29D1194B1A782378DD
:1007A0009A4224D1174B1A7863789A421FD1164B7C
:1007B0001A78A3789A421AD1144B1A78E3789A429D
:1007C00015D1134B1A7823799A4210D1114B1A780C
:1007D00063799A420BD1104B1A78A3799A4206D1C9
:1007E0000E4B1878E379C01A43425841C0B241B069
:1007F00030BDC0460412002000F01F0000F01F10A2
:1008000001F01F1002F01F1003F01F1004F01F1062
:1008100005F01F1006F01F1007F01F1008F01F1042
:10082000F0B5022083B000F013F901F05FF9002960
:1008300000D1EFE0FA220023920001F07DFD7B4B16
:10084000C418FFF731FE00281FD1012000214042CB
:1008500003F0C0FF00F048F901F048F900290AD080
:10086000FA220023920001F067FD8442E9D80024B7
:10087000200003B0F0BDFA21890001F01FFD844281
:10088000F5D9FFF711FE0028DFD0A0260125E8B238
:1008900000F0FCF801F02AF900294AD0FA220023DE
:1008A000920001F049FD84190DE0FA220023920024
:1008B00001F042FD844210D901200021404203F0A2
:1008C00089FF00F011F901F011F90029EDD1FA21A9
:1008D000890001F0F3FC8442EED801F007F9002909
:1008E00022D0FA220023920001F026FD504BC718B7
:1008F00011E0FA220023920001F01EFD8742B6D9D2
:1009000001200021404203F065FF00F0EDF8FFF701
:10091000D3FD041E12D101F0E9F80029E9D1FA2132
:10092000890001F0CBFCE9E7FA21890001F0C6FC5F
:10093000DCE7FA21890001F0C1FCB4E701F0D6F848
:10094000002962D0FA220023920001F0F5FCFA237C
:10095000DB00C71812E0FA220023920001F0ECFC41
:10096000874215D901200021404203F033FF00F0F7
:10097000BBF82000FFF7A6FD002809D001F0B6F86B
:100980000029E8D1FA21890001F098FC8742E9D8D2
:10099000FFF7B2FD6B46013B5C5501353C36092D36
:1009A00000D074E76A46234B11CA11C3FFF7CEFE8D
:1009B000041E00D15BE7032000F068F801F096F810
:1009C00000292CD0FA220023920001F0B5FC05008A
:1009D000F535FF350EE0FA220023920001F0ACFC61
:1009E000854200D844E701200021404203F0F2FE96
:1009F00000F07AF801F07AF80029ECD1FA218900A8
:100A000001F05CFC8542EED832E7FA21890001F062
:100A100055FC9CE7FA21890001F050FC0FE7FA2110
:100A2000890001F04BFC0500D2E7C04688130000A6
:100A3000307500000412002010B5192000F0FEF8F7
:100A4000D02380221B0692045A629A6110BDC046D0
:100A500000220B4B10B518700A4B1A7001F046F8C3
:100A6000002907D0FA220023920001F065FC064B12
:100A7000186010BDFA21890001F020FCF7E7C0469C
:100A8000E105002073120020501200200022114BBB
:100A900010B51870104B1A70104B01321A7001F01B
:100AA00025F8002910D0FA220023920001F044FC1E
:100AB0000B4B143018608022D02392041B065A611D
:100AC0000122084B1A7010BDFA21890001F0F6FBD3
:100AD000EEE7C0467112002072120020731200204F
:100AE000481200207512002010B500F0FFFF002909
:100AF00011D0FA220023920001F01EFC334B1A7829
:100B0000002A10D1324B1B78012B22D0022B3AD075
:100B1000002B32D010BDFA21890001F0CFFB2B4B06
:100B20001A78002AEED02B4A11688142F2D82A495D
:100B30008C460978002928D1D02380241B06A404E0
:100B40009C61264B14301970012361460B701060B4
:100B5000E0E7FA214900224A1368C31A8B42D9D32D
:100B600001241E490B7863400B7019D0D0238021DB
:100B70001B06890459611060CCE7D02380221B0634
:100B800092045A61C6E76421E5E7164C21780139E1
:100B9000C9B2217000290AD11970114B1860B9E748
:100BA000D02380211B06890499611060B2E7D0230D
:100BB00080211B06890459610121084B14301970EA
:100BC000002361460B701060A4E7C046731200203A
:100BD000E10500204812002072120020751200204A
:100BE000501200207112002010B54024074A8300E3
:100BF0009A181268C0005440C0222240044C1B19AD
:100C00001A60044BC018416010BDC04604C00140CA
:100C100004D0014000400140064B8000C3181B680F
:100C2000C90092000A435A400C231340024A80181C
:100C30000360704704C0014004D001400123D0226A
:100C40008340120693629361084A83009A181168E0
:100C50004022514080320A400549C0005B181A60AA
:100C6000044BC018052343607047C04604C00140D0
:100C700004D00140004001400FB400B5084883B0E3
:100C800001F0F4FF049B002B07D005A91800019187
:100C900001F086FE034801F0E9FF012001F098FE13
:100CA0009C5B0010AC5B0010EFF3108072B6034A3F
:100CB0001368002BFCD0BFF35F8F70472C0100D06E
:100CC000BFF35F8F0022024B1A6080F310887047D9
:100CD0002C0100D070B58C461600EFF3108472B66C
:100CE0000F490B68002BFCD0BFF35F8F6346DB0816
:100CF000C5180722C05C63461A40012393401A00BE
:100D00000240034207D118432870BFF35F8F0A6087
:100D100084F3108870BD61463000FFF7ADFFC04618
:100D20002C0100D0F8B5CE4647468C4680B51C0055
:100D3000EFF3108872B61C490B68002BFCD0BFF390
:100D40005F8FA24221D80723994602E001329442E4
:100D500018D34946012611408E40D308C718C35CFA
:100D60001E42F3D1100033433B70BFF35F8F00226C
:100D70000D4B1A6088F3108800280EDBC0BCB94602
:100D8000B046F8BD01204042EFE7BFF35F8F00237C
:100D90000B6088F31088012040426346002BEDD0A1
:100DA0000898FFF769FFC0462C0100D0044A10786C
:100DB000431CDBB2172B00D9102313707047C046B9
:100DC000E205002000B5054B83B001000093182216
:100DD0001F230348FFF7A6FF03B000BDB05B001060
:100DE000CC0F00200021044B044ABFF35F8F02C3E5
:100DF0009342FAD17047C046000100D0800100D074
:100E0000084B094A1360094A1360094A1360094AEA
:100E10001360094A1360094A1360094A1360094ABA
:100E2000136070478080808000E400E004E400E00C
:100E300008E400E00CE400E010E400E014E400E06A
:100E400018E400E01CE400E01F2318401E3B834030
:100E5000002905D0C021044A49005350136070474F
:100E6000802201498B50FAE700E100E070B50D00E7
:100E7000EFF3108672B60F4A1368002BFCD0BFF355
:100E80005F8F0D4B10309B6884001B590B4A9342B7
:100E900003D09D4201D001F0DFF8074B9B681D5144
:100EA000BFF35F8FBFF35F8F0022024B1A6086F3A0
:100EB000108870BD240100D000ED00E0C1010010D9
:100EC000F0B5DE4657464E464546E0B5824683B00D
:100ED0008B461700EFF3108872B6604A1368002B38
:100EE000FCD0BFF35F8F00255D4B5D579946002D09
:100EF00000DA9AE04A466B005A4C5E19B60001933C
:100F0000A31900939B791370574B9A68534610337B
:100F10009B00D15899460B1B2F2B32D9534B99422A
:100F200000D098E0019B0236ED18514BAD006353A1
:100F3000504BA619043B9B1B4F4A1B055B0D6519C3
:100F400013436B804D4B0121AB80FF23AB715B469C
:100F5000AB60009BEF710B4319004A46424B9B6804
:100F60009950BFF35F8FBFF35F8F00223B4B1A6036
:100F700088F3108803B0F0BCBB46B246A946A04631
:100F8000F0BD01200A008243D379B446BB422DD87C
:100F90003B4BB51C190013001B1B5B415943090D4A
:100FA0008C46334B6519A353324B0099043B5B1BB2
:100FB0001B05314D5B0D2B4304364B80A619131FC7
:100FC0009B1B1B055B0D1D4363468B715B468B6052
:100FD0002C4B8D80CF7113600143BEE75800C018C1
:100FE00080002018C679BE4225D902000623D356B8
:100FF000002BF3DA9A46131D9C4623486346009E55
:101000009571043EF61A36051B4B760D1E43019B67
:1010100096805A1953469200A418A3715B46194A48
:10102000A0802260E771A36097E701F015F8002522
:101030004B465D575EE766469A46131D9C46908870
:10104000043640050015A6196044801B00050A4EB1
:10105000400D3043D2E700F0FFFF63E7240100D0EA
:1010600070120020E405002000ED00E0C101001036
:1010700000A1FFFF1406002000E0FFFF01BDFFFFFD
:10108000AAAA00000148804701BD0000F0B545460E
:10109000DE4657464E46E0B50D0083B0EFF31088AC
:1010A00072B6604A1368002BFCD0BFF35F8F5E4BB3
:1010B0005E499A68030010339F00D45999468C42C8
:1010C0003ED0AC424FD05A4EA21B2F2A38D8594B93
:1010D0001A689C4613000122824013401F220240DE
:1010E00001209A4690406346802283469850BFF381
:1010F0005F8FEFF305830193002B36D0994501D024
:1011000000F0AAFF012322009A439068854208D18B
:1011100076E04B005B189B00F3189868854236D048
:101120001A00062151560029F3DA854254D053465D
:10113000002B27D0C02259463E4B520099501960CF
:10114000394B9B68DC51BFF35F8FBFF35F8F002289
:10115000344B1A6088F3108803B0F0BCBB46B2462B
:10116000A946A046F0BD0C00EAE7220001339A43ED
:1011700090688542D5D106201056130000280ADA5F
:101180000C0031E0802359462A4AD150D8E7062086
:101190001856002821DB420011188900751889466D
:1011A000A9689960E979D971062169569971002970
:1011B00024DBAD88F11A6D052D154D44491909053B
:1011C0001D4D490D2943998013181C4A9B00117825
:1011D000F31899711070AAE713000199002914D12E
:1011E000FF3191711649918014490A789A71154A14
:1011F0009B1B5B415A43120D0A7098E71049E2E7C6
:101200000620105613000028C5DA0F4A0F49D21ADB
:10121000083A5002400D014399800D4952080A4393
:10122000DA8084E7240100D000ED00E0C101001065
:10123000E405002000E100E000E0FFFF7012002064
:1012400001BDFFFFAAAA00001E06002000F0FFFF5C
:1012500000F8FFFF0123034370B59C46EFF30581BF
:10126000EFF3108572B6214A1368002BFCD0BFF350
:101270005F8F1F4B04001F4AE41A64416243120D42
:101280001D4C8900A66852B2765866451CD00621CE
:10129000595691421CD012215956914222D01E21FA
:1012A0005956914220D02A2159560324914210D0F8
:1012B000124B19781A708171BFF35F8F00220B4BAC
:1012C0001A6085F3108870BDA3680D4C5C50EFE781
:1012D00000246100091989005B18FF2199710949EF
:1012E0009980E5E70124F4E70224F2E7240100D025
:1012F000E4050020AAAA000000ED00E07012002022
:10130000C101001001BDFFFF024BC9188900016037
:101310007047C0464000003470B5114C114DAC42CE
:101320000FD2FF262368002B0CD0FFF73FFD0100F2
:101330002000FFF7E9FFA680BFF35F8F0834AC42BF
:10134000F0D370BDFFF732FD01002000FFF7DCFF96
:101350002671BFF35F8F0834AC42E3D3F1E7C04698
:10136000A8060020B006002010B50400FFF71EFDFF
:1013700001002000FFF7C8FFFF232371BFF35F8F39
:1013800010BDC04610B504000120FFF71BFD034B44
:10139000C01880002060BFF35F8F10BD4000003494
:1013A0000A4B1968EFF3108072B60A68002AFCD065
:1013B000BFF35F8F1B68BFF35F8F00221A6080F35B
:1013C000108840BF002000217047C04660120020F6
:1013D000F0B5DE4657464E464546E0B585B0EFF3DC
:1013E000058303221A40B34B91005F5801239340B9
:1013F0009B4602925A468846AF4B1A60AF4B039306
:101400005B46AF4843630823FE5E002E37DABB8895
:101410001BB2002B00DBA4E0BB79002B00D0E5E081
:101420000823F95E002920DB4B007A695B18DB009A
:10143000D3189D68DC686B1C00D104E1A048010052
:101440004144826A0B69AE1A9B1A9E4215D301234E
:10145000026A029883401A420FD0994800F03EFB7E
:101460008C4202DCCCD18542CAD940BF05B0F0BC69
:10147000BB46B246A946A046F0BD0D61EDE77A69CC
:10148000730091469B19DB0099444B469C68DD68CC
:1014900000F024FB8D42BADC00D1F6E0002D00DA2A
:1014A000DBE04A464B4652691B699246039A9342D7
:1014B00000D1CCE04A460821785E528800045146AB
:1014C00010439847009001910099019A0B00134333
:1014D00000D1C2E013000A00002B00DBD9E020009D
:1014E0002900801A99414B469860D96000229B5E82
:1014F000002B00DA8BE75D007C69EA18D200A218A5
:1015000000949468D268A2468A4200DD7FE702D147
:10151000844200D97BE70824A4463B81BC44009C5C
:1015200000972F006546B4463E0006E05E00F218C4
:10153000D200A2189768D268BA468A4207DC00D166
:10154000B4E0F318DB00E518E35E002BEEDA664644
:101550004A46009F13802E80BB881BB2002B00DA06
:101560005AE73A69EFF3108172B61368002BFCD08A
:10157000BFF35F8F0123BE885B42BB8036B23B69FD
:10158000BFF35F8F00221A6081F31088002E00DA0B
:1015900042E73B0008333A0099467D6973009B1986
:1015A0000824115FDB004846EB18002913DB9C6818
:1015B0000093A446DC6806E0A34240D00023F95E15
:1015C0003800002906DB4F007F18FF00EF19FB6889
:1015D000A342F1DD009B068000201E5E1980002ED4
:1015E000DCDA1700BB79002B00D119E70023BB71AF
:1015F0000823F95E4B1C00D137E73D000835AC46A7
:101600007C6903E084464B1C00D109E74B005B1862
:10161000DB00E0180A00E15E43881BB2002BF1DA20
:1016200001256D42EE178560C66008257B5F9342F9
:10163000E9D0634619803B8903803A81E3E7BB68C0
:101640006345BBD9C6E7631C00D0F7E605E7534600
:1016500050461B699847002823D14B461B883A699E
:101660003B81EFF3108372B611680029FCD0BFF301
:101670005F8F49467A880A803A697E80BFF35F8F20
:101680000021116083F31088C1E6844200D805E789
:10169000BDE60B4800F022FA009B019CC018614196
:1016A00021E753460CCB009201930DE7824500D809
:1016B00047E74CE72C1200203C700540D113001086
:1016C0000040054070B52D4C2569002D04D00A213D
:1016D0002B48FFF719FE70BD2A4E0321294800F060
:1016E000F3F9E660FFF762FB274B0322C018D02313
:1016F00022701B061B6801216370244B8000A360CD
:101700000F2320610220638063694942A180198010
:101710000231198647311D83585218315A52753299
:101720005C3999521832013199521832013199526B
:10173000183201319952083518329D52023118324F
:101740009952183201319952183201319952183296
:10175000013199521832013199521832013199529E
:101760000B4B0C49DC6001303562FFF77FFB012138
:101770000320FFF769FB084B1D60A8E72C0600203B
:10178000601200200040054040000034FFFF1000C0
:101790002C120020D11300103860054070B582B0C3
:1017A0000092019301000269EFF3108472B613688E
:1017B000002BFCD0BFF35F8F0223C85E0D690028A9
:1017C0003FDB4A69430016001B18DB00D218F35AAE
:1017D0004B80BFF35F8F00232B6084F31088069B40
:1017E0001361079B5361009B019C9360D4605388F5
:1017F00001335B045B0C1D1C002B20D0ACB2030436
:10180000558023430D69EFF3108C72B62C68002CC1
:10181000FCD0BFF35F8F8C88148088800A69BFF387
:101820005F8F002010608CF310880A7801309040A0
:10183000CA68084952181060180002B070BD01252E
:10184000DCE7BFF35F8F00232B6084F31088013B3C
:10185000F2E7C0463C20000010B543890A149342C9
:101860001ADD53009B184269DB00D3180469EFF3BB
:10187000108C72B62268002AFCD0BFF35F8F5A88A2
:10188000090494B2090C8A4208D00369BFF35F8F40
:1018900000221A608CF31088002010BD094A2243F0
:1018A0005A80012302698371BFF35F8F00211160A9
:1018B0008CF31088027804499340C26801205218C2
:1018C0001360EAE70080FFFF3C200000F0B5C64649
:1018D00000B582B0040000F009F9FA2206000F00FA
:1018E000200000230021920000F088FF8019794138
:1018F00004000D1E02DA01242E4D644206267642B3
:10190000F71736196F41AF4214D811D000F0EEF836
:1019100032003B00121A8B41002B15DC002B46D005
:101920002000290000F022F902B080BCB846F0BDCA
:10193000A642EBD90026002700F0D8F832003B0081
:10194000121A8B41002BE9DD00F0D0F832003B0089
:10195000121A8B41002B0ADB00230193164B320035
:10196000009316483B00FFF719FF0130D8D0002341
:101970003900B0469C46124A1248536A994204D82C
:10198000966A4645CCD29942CAD10668EFF31087D1
:1019900072B63368002BFCD0BFF35F8F0368BFF3D0
:1019A0005F8F66461E6087F3108820BFE5E7002A38
:1019B000B6D0C9E7FFFFFF7FA11300102C0600205F
:1019C0000040054060120020F0B5CE46474680B585
:1019D00004000D0085B0EFF305868946002E10D077
:1019E000364900204B6AAB4206D38A6A5B1B591EFC
:1019F0008B41A2424041184305B0C0BCB946B04635
:101A0000F0BD2F4FFB683A7898461800039200F01B
:101A100065F8039A131D42469B009B5822001B1A2F
:101A20009C462B00121A8B419E4210DC0DD020BF29
:101A3000224A0020536A4B45DED3926A5B1B591E33
:101A40008B41A24240411843D6E79445EFD900F0BC
:101A50004DF822002B00121A8B41002B1BDB0023B8
:101A60000193184B2200009338002B00FFF796FEDD
:101A7000002810DD114B5A6A4A451CD39B6AA342C9
:101A800017D301003800FFF7E7FE0C4A0020536A25
:101A90004B45B1D3D1E7094A0020536A4B45ABD33C
:101AA0000020926A5B1BA24240415A1E9341184398
:101AB000A2E74A45E5D120BFE3E7C0460040054024
:101AC0002C060020A113001010B5024A0248FFF7AF
:101AD00001F910BDCC5B0010D00F00200300416A5B
:101AE0000A00986A596A8A42FAD17047034B596AC8
:101AF0000A00986A596A9142FAD17047004005403D
:101B000070B505000E00184A536A1900946A536AAA
:101B10008B42FAD1200019002C00350024184D41C9
:101B2000AB4216D813D0104B2A005B6A9D4203D9F2
:101B30000D494B6A9342FCD3934207D10A4A02E013
:101B4000516A994202D1916AA142F9D370BDA04273
:101B5000E9D9054B5B6A1C005A1CEFD00122012415
:101B60006442E5175242E3E700400540064A536AE3
:101B70009942FCD807D1044B02E05A6A914202D143
:101B80009A6A9042F9D8704700400540F8B50400C1
:101B900006200D0000F06EF9002843D0364B37497F
:101BA000E3185A1E934180225B429B0D12049B0551
:101BB0009B18334A1360334A136018000A68904335
:101BC000FBD12D4B304AE31859424B4180215B0039
:101BD00049000620995200F04DF92900C00000F09C
:101BE0006DFB0130C3091ED1402701226262A3624E
:101BF000266BF30722D4E36A244B0620E518002362
:101C00002B60266300F036F93900800000F056FBA7
:101C10007023E26A5A400E3313402B601C4B23633F
:101C20000323A364F8BD1B4A93421DD900231A4A1B
:101C30001A4F6262A362266BF307DCD5184B144A75
:101C4000E3181A60656AA36A0620AD01ED1800F07A
:101C500011F9144900F032FB0100A80200F02EFB3C
:101C60000021FFF74DFFC6E740069A01800E1718C6
:101C70001A000300BAE7C0460080FCBF08C000405D
:101C800000E0004000F00040641200202C10000032
:101C900001030000FEFF0000FFFF0000C0FF3F0047
:101CA000303000004E0E0000F8B5DE464E46454688
:101CB0005746E0B505008B4618000A99914600F09A
:101CC000FDFA0A9B6C001E026419304BA400E41854
:101CD000636880469E4200D966602F1FFBB29A4619
:101CE000012B2FD9C0238022294FAD009B017959A8
:101CF0001201E3181A6000291BD14B4622685B01D0
:101D00005340E022134080225201A2181360534630
:101D1000012B2FD9802380229B01E31812011A6026
:101D2000434666607B51F0BCBB46B246A946A0461E
:101D3000F8BD786900F0C2FA013043001B18033B7C
:101D4000FDD2DAE75B46012BCCD1C02303229B01F5
:101D5000E3181A60023AA3681A42FCD04A46236884
:101D600052015A40E023134080225201A218084F2A
:101D70001360AD0058460323216841400B401360B7
:101D800001228240A3681A42FCD0C3E700800040D1
:101D9000D40F0020F0B5D6464F464646440098463C
:101DA0002418324BA400E41863688A469146C0B5F3
:101DB000FF2B02D880235B006360061FF6B2012E62
:101DC0002FD9C02380222A4F85009B017959120107
:101DD000E3181A6000291BD14B4622685B0153406F
:101DE000E022134080225201A2181360012E30D944
:101DF000802380229B01E31812011A6080235B007C
:101E0000636043467B51E0BCBA46B146A846F0BD8C
:101E1000786900F053FA013043001B18033BFDD2F0
:101E2000DAE75346012BCCD1C02303229B01E318F0
:101E30001A60023AA3681A42FCD04A46236852014B
:101E40005A40E023134080225201A218084F136029
:101E5000850050460323216841400B401360012256
:101E60008240A3681A42FCD0C2E7C046008000400E
:101E7000D40F0020014B8000C0587047D40F0020C1
:101E8000F0B5C646040000B52348160098460D007C
:101E900000F014FA0100300000F010FA4346069AF0
:101EA0001B04120313439C4623680600002B22DB0D
:101EB0001A4B1B48E218531E9A4180235242120BC0
:101EC0009B011203D218174B1A60174B1A601300AC
:101ED00001688B43FBD12122144B2560E318A660D7
:101EE0001A602268002AFCDA6246E26008221A6060
:101EF00080BCB846F0BD3F2322681340AB42D7D127
:101F0000A3681B051B0D8342D2D1EE22E368D202E7
:101F100013406345CCD1EBE7001BB7000040FDBF89
:101F200008C0004000E0004000F000400430000025
:101F3000194B1A4A10B5DA618022194BD2051A6082
:101F4000184C194A146000290AD0E022174BD20419
:101F50001A60002809D18022144B12061A6010BDA5
:101F6000E022D2041A600028F5D043011B1A9B001E
:101F70001818802300015B04984209D203000C4A20
:101F800013608022044BD2055860084B1A60E6E7C4
:101F9000084B1800F3E7C046008005402131B76ABE
:101FA00000B00540FCFF01000820014000A00540F2
:101FB00010120020FFFFFF008023024A9B000B430A
:101FC000D362704700800540002310B50100988A55
:101FD0001B8B984710BDC046162310B5010018880A
:101FE0005B88984710BDC046F8B54746CE4680B5D9
:101FF0000F1E18D01423994604330400002501262F
:1020000098464B461888434621681B88984701C468
:10201000431E984101350640AF42F2D13000C0BCAA
:10202000B946B046F8BD0126F8E7C046AA23064ADD
:102030001B0113608D235B00D3600449044B1960BE
:102040005368002BFCDA70470040024000B0FA00F1
:10205000006002407047C04610B50148FEF70CFE14
:10206000F05B001070B5074D074EB54209D2002451
:10207000013E761BB608013608CD01349847B442BC
:10208000FAD170BD305B00106C5B0010054B064A46
:1020900006491A60064A074B1A6010000B689843FD
:1020A000FBD1704700E00040BFCDFBFE08C0004000
:1020B000FE7F3C0000F00040044BDB6C002B03D1A2
:1020C0008022034BD2021A607047C04600001150B4
:1020D0004C201150044A054B1A60054A1368DB0175
:1020E0008033FBD17047C046FFFFFF0100F0004086
:1020F00008C000404022034B9A675A671A67DA66A5
:102100007047C04600F0014010B5FEF76BFE10BDF1
:1021100070B52849284D294E6D1AAC102200302C7C
:1021200000D930223000920000F02CFCBC2D3DD8AC
:1021300023002A3B224A052B1DD9302075196D0733
:10214000A446001BEB0F002D03DA611C8C46A10096
:102150007250C01AE3189B004108F318C900C9184F
:102160001A605A6008339942FAD1012303421DD004
:10217000984360440400A300F250631C2F2C15D038
:102180009B00F250A31C2E2C10D09B00F250E31C9D
:102190002D2C0BD09B00F250231D2C2C06D09B0025
:1021A000F250631D2B2C01D09B00F250054B9E601A
:1021B00070BDC04600010010C001001000000020EA
:1021C000C101001000ED00E0002310B5294C82B0E1
:1021D000A367FFF72BFF0122274B1A60636C012BCB
:1021E000FCD10322254B1A60224A936B012BFCD1B0
:1021F000013300930121224A22480433FFF740FEB5
:10220000052301210093204A2048FFF739FE0022D0
:10221000022104201E4BFFF7BDFD002201210520F5
:102220001C4BFFF7B7FD0022002107201A4BFFF7D8
:10223000B1FD002200210820174BFFF7ABFD8023E2
:10224000DB000093002200210920134BFFF72CFD37
:102250000022104B00210620FFF79CFD0420FFF711
:1022600009FE0E4900F02AF801000020FFF7A4FE45
:1022700002B010BD008000403CB0004030B00040D3
:10228000002F685900800240008C864700C0024041
:10229000001BB70040597307006CDC0240420F007E
:1022A00001480421014B184750060020E91F001087
:1022B000014B9B681847000050060020114A936F9D
:1022C0009B0813D210665166002905D0FFE7FFE78F
:1022D000FFE7516F106F704704B5002801D0002050
:1022E000C04303F0FDFB002104BDC046F0B5146EF1
:1022F000556E576F166FFFF7E5FF14665566576703
:102300001667F0BD000000D094464A4A926F9208CA
:10231000624601D228E0C046F0B5464E346E756E76
:10232000776F366F00F020F89446424A146655667F
:10233000576716676246F0BD94463E4A926F920810
:10234000624601D254E0C046F0B53A4E346E756E26
:10235000776F366F00F04CF89446364A146655662F
:10236000576716676246F0BD002B24DB11D00029A9
:102370003EDA00B5C943404200D1013100F038F8DF
:10238000C943404200D10131DB43524200D1013305
:1023900000BD002AEBD1002801D1002905D0002082
:1023A000C90FC90701D1C043410800B503F088FB3C
:1023B0000022002300BD00B500290ADBDB435242A6
:1023C00000D1013300F014F8C943404200D101317B
:1023D00000BDC943404200D10131DB43524200D12C
:1023E000013300F005F8DB43524200D1013300BD58
:1023F000002923D1002B18D1002A0CD0BC460D4F48
:1024000038667A6600210023FFE7FFE7FFE77A6F6F
:10241000386F67467047002801D00748010000B5B3
:1024200003F04EFB0022002300BD02000B00002041
:1024300000217047000000D0FFFFFFFF002B00D0FD
:10244000BFE0130C28D1002AE7D080B4114F3966C1
:102450007A66FFE7FFE730B4040C7B6F396F1B042B
:1024600023433B667A66FFE7FFE7FFE7C04684B297
:102470007B6F3D6F1B0423433B667A66FFE7FFE7F4
:10248000C04600232C042D0C7A6F386F0019694167
:10249000B0BC7047000000D0F0B594460025140E83
:1024A00001D112020835140F01D112010435940F25
:1024B00001D192000235D40F01D152000135D40B65
:1024C0000134254F7C66254C3C660E0C93B2FFE729
:1024D000FFE7FFE73C6F6643360C7703BE46734366
:1024E000DF0B5B04C01AB941130C7343DB18C91A24
:1024F000CE086643360CB64493B273431F0F1B01DC
:10250000C01AB941130C73431F0B1B05C01AB94104
:10251000860D8F023E436643360C092D24DB520A9A
:102520007243801A7703460A6643360C16235B1BF8
:10253000DE40DF40BF1964466643821B70460435A7
:1025400006330100D940A840C01900D30131A2428E
:1025500006D20023F0BD0000000000D0FFFFFFFF07
:10256000121B0130F3D3F1E709277F1BFE406446BD
:10257000A2B27243801A00D20139220C7243130CAA
:102580001204821A99410B0070460435133701007A
:10259000F940A840801900D30131002B02D1A2429A
:1025A0000AD2F0BD013000D30131121BFAD2013B37
:1025B000F8D1A24200D2F0BD013000D30131121B8C
:1025C000F7E7F0B51C0C00D080E00CB400251C0A25
:1025D00004D11B02160E3343120208351C0B04D122
:1025E0001B01160F3343120104359C0B04D19B00D1
:1025F000960F334392000235DC0B02D192185B41F7
:1026000001351C00971864410134464F7C66464CE6
:102610003C660E0CFFE7FFE7FFE7C0463C6F6643F2
:10262000360C7703BE4697B27743C01B00D2013900
:10263000C01B00D201399FB27743C91BC91B170CBD
:1026400077437E04FF0B801BB941CE086643360CEE
:102650000C2D33DBB644120B1F053A431B0B97B20C
:102660007743C01B00D201399FB27743C91B170CB7
:1026700077433E043F0C801BB941860D8F023E43D9
:10268000664329277F1BFE400C3D7746AF40BF19AC
:1026900030BCA2B2ABB272437343801A9941220C90
:1026A0007243130C1204801A994102000B00013787
:1026B000001BA941F9D2781E0021F0BD0C277F1B19
:1026C000FE4077467F0BAF40FF19E0E700245D1C1A
:1026D00007D0144F7D663966FFE7FFE7FFE7FFE7A6
:1026E0003C6F95B29EB265436643401BB141150CE9
:1026F0001E0C6543664336042F0C3E432D04401BDD
:10270000B141994204D202000B0020000021F0BD2B
:1027100001D19042F7D3801A994101349942F2D302
:10272000F6E70000000000D0FFFFFFFF132370B5A5
:102730001D78012D19D014DD1F48FFF74DFC060050
:102740001E48FFF749FC1E4C80223100200000F09B
:1027500019F9022D2DD01B48FFF736FC1A4B1860D3
:1027600070BD1A4B164CA364F5E7184B144C23604C
:102770006360A360E36023616361A361E36123623B
:102780006362A362E36223636363A363E36323641B
:102790006364A364E36423656365A365E3652366FB
:1027A0006366A366E36623676367A367E367A3645F
:1027B000D1E7064BA364CEE7534400005346000024
:1027C000700800204C3300005C120020D12700105C
:1027D00007B5604601880A0A0230DF2AFAD1C9B279
:1027E000820804D3028840880004104300E0006897
:1027F000014A5050039007BD7008002051434343E5
:10280000C9188C46110C83B24B4310B4040C6143BD
:1028100092B280B2504362431C041B0C001910BCDE
:1028200059411304120CC018514161447047000013
:102830004840414048400E4B5B6818470C4B1B68B2
:1028400018470C4A936F9B0802D2094BDB68184764
:10285000F0B5146E556E576F166FFFF7F6FF054A09
:102860001466556657671667F0BD014B9B6818479D
:1028700070090020000000D0491A002808D108463D
:1028800070470000C10FC90700D54042002817D08B
:10289000F44603B40B4B1B68984706BC81409E3836
:1028A0004042803107D20B0607D04900490AC005D3
:1028B0001043084360470130F8E7490A8902F5E709
:1028C000704700005C120020014B5B6A1847000053
:1028D00070090020132310B51C781348FFF77CFB08
:1028E000012C0BD004DD01008022104800F04AF8D2
:1028F0000F48FFF769FB0F4B186010BD0B4C010030
:102900005422200000F03EF80B4B6365A365E3659D
:1029100023666366A366E36623676367A367E3676B
:102920002362E361E4E7C0465346000070090020DB
:102930004C3300005C1200203D29001007B56046B2
:1029400001880A0A0230DF2AFAD1C9B2820804D308
:10295000028840880004104300E00068014A50509B
:10296000039007BD7009002001480421014B18475E
:1029700060060020E91F0010014B1B68184700008B
:1029800060060020014B5B681847000060060020CD
:1029900010B5002800D110BD00F01EF9FBE7C046BD
:1029A00010B5094A0300146884B0002C08D0012235
:1029B00000910648524203A9A047012004B010BD6F
:1029C00000F054F90020F9E70C12002091290010C2
:1029D00000BEFDE710B5FFF7FBFFC04670B5FFF77F
:1029E00041FB074D074EB54209D20024013E761B3C
:1029F000B608013608CD01349847B442FAD170BD0B
:102A00006C5B0010745B0010030010B5080011002F
:102A10001B68984710BDC046F8B5437D07000D0000
:102A20001600002B38D0002A1ADD0B780A2B18D09C
:102A30000020012E09D0012421006B5C01340A2BF7
:102A40001AD0B442F8D1864203DD311A3B68281807
:102A50009847AD19013D2B780D3B5A4253413B75C8
:102A6000F8BD037D002BE3D102210E483B68984757
:102A7000012EEED00120DEE76B1E5B5C0D2BE0D05B
:102A8000884203DA091A3B6828189847054802214A
:102A90003B6898472000D4E7036811002800984756
:102AA000DEE7C0465C5D0010F0B54646D6464F46B0
:102AB000C0B582B090461C0006000D00FFF716F866
:102AC00000232F4A12184B41002B02DA01222D4B12
:102AD00052422D4908008A4603F01AF881466B1CC1
:102AE00003D1300002F0AAFF0500002C27D0274FA9
:102AF000274B1C68002C18D04346002B21D1254BB6
:102B0000984602E02469002C0FD02368002BF9D0EE
:102B100043461B68002B01D09C42F3D120002A00C1
:102B20003100B8472469002CEFD14B46002B23D14C
:102B3000280002B0E0BCBA46B146A846F0BD164F28
:102B4000D6E7144B984602E02469002CEDD02368A8
:102B5000002BF9D043461B68002B01D0A342F3D1D0
:102B60002A0031002000B8476B460A222000DA71A3
:102B7000D91D093AB847E7E7504602F099FFD7E771
:102B800040420F00FFFFFF7FA8060020192A001017
:102B9000FC0F002000120020092A00100A4A1368C6
:102BA000002B05D10CE01A001B691032002B07D056
:102BB0008342F8D1002902D1186910601961704769
:102BC0000029FCD01060FAE7FC0F002010B500F0DF
:102BD00037F9012010BDC046F0B5CE46474680B556
:102BE00083B06B460600DD1D2870FEF77FFF0023D3
:102BF000194A12184B41002B02DA0122174B52429C
:102C000017490800894602F083FF164B80461C686E
:102C1000002C14D0144F02E02469002C0FD023683C
:102C2000002BF9D03B68002B01D09C42F4D120004E
:102C300001222900FFF7F0FE2469002CEFD1434662
:102C4000002B05D1300003B0C0BCB946B046F0BD82
:102C5000484602F02DFFF5E740420F00FFFFFF7FDF
:102C6000A8060020FC0F00200012002070B5040010
:102C700002F0E4FE01230100050001222000FFF71D
:102C800013FF084B1C68002C06D06368002B05D08E
:102C900098472469002CF8D1280070BD2469002CC5
:102CA000F3D1F9E7FC0F0020F0B5002915DD0E4B3C
:102CB0000D271A680D4B0E4CD3185D426B41451819
:102CC00020215B001E5F0478A64207D09369194259
:102CD000FCD101301460A842F5D1F0BD93691942CE
:102CE000FCD11760F2E7C046681200200080FCBFEC
:102CF000641200201F4B30B51B680D1E9C462ADD58
:102D0000441E102100201C4B1A689369194214D1EB
:102D1000013093691942FCD1136823548542F4D1E0
:102D20006346002B07D050239363516B183B0B4035
:102D3000124952181360280030BD6346002B07D09B
:102D400050239363516B183B0B400C49521813608E
:102D50000028F1D10BE0002B09D05022064B1B6854
:102D60009A63596B183A0A4004495B181A600320A9
:102D70004042E1E7C40F0020681200203410000038
:102D8000064B10B51B68002B06D00021044A1268C0
:102D90009163044A1068984710BDC046C40F0020D4
:102DA00068120020C80F00200822034B19688B69A5
:102DB0001A42FCD17047C0466812002070B51A4E06
:102DC0001A4B32680400D31858424341184D14334B
:102DD00018002B68002C02D0002B0FD070BD002BE8
:102DE000FCD0060000219463FEF72EF83000114954
:102DF000FEF74CF9104B2C601C60EFE72C600400D0
:102E00000D4B19600B49FEF731F801212000FEF748
:102E10001BF8502233689A63596B183A0A400749E5
:102E20005B181A60DAE7C046681200200080FCBF19
:102E3000C40F0020812D0010C80F002034100000A6
:102E40000D4B10B51B780D4B0D4C1B780D4B022113
:102E50001B780D4B00202360FDF7C6FE02210120E8
:102E6000FDF7C2FEE12120684902FEF78FFE012135
:102E70000648FFF793FE10BD005E0010FC5D0010D9
:102E800068120020F85D001000400340700600202A
:102E900010B5024800F004F810BDC0463C120020F6
:102EA00010B588B004000D2200216846FFF764FDCC
:102EB0000D22002104A8FFF75FFD4B236A466846F8
:102EC000137004A90D2202F0EBFD15210822200049
:102ED0006944FFF757FD08B010BDC046F0B5DE46A7
:102EE00057464E464546E0B50C0083B080468B46BB
:102EF0000525FDF7D9FE012227792600BA4065573E
:102F00002024324B324943441B0D9B009A46814694
:102F1000CB58013AE41B002D3EDBAC422FDB100006
:102F2000A84003422BD1B07900284BD12C00306847
:102F3000AA40160000921A401E4240D18026B601D7
:102F4000B446002F16D0A34601911C0041463B0019
:102F50002E00070010004200BD5A654500D2AD1991
:102F6000321812329200013055509842F3D32300A8
:102F70005C460199009A134352468B5001E00124AC
:102F800064424846FDF79CFE200003B0F0BCBB46FF
:102F9000B246A946A046F0BD202F10DC464601E00F
:102FA000013C0CD31000A04025000342F8D1584644
:102FB0008079B046002805D158460068B8E7092452
:102FC0006442DEE714246442DBE7C0460000E0AF61
:102FD000BC0E0020F0B5DE4657464E464546E0B5ED
:102FE0001600DC22924685B01C004B0001935B1852
:102FF000DB00C518AA445246126893462A00CC3218
:10300000126800921C4AAB18802292021A60002CAF
:103010001FD08023DB049946012398463300D8351E
:10302000E0272E0055469A463F0202900391200069
:10303000FFF73EF94A46430113432B60534642468D
:10304000C34013403B433360631E1C40EFD10298E2
:103050000399019B5B18DB00C3181A005946DC3248
:103060001160009ACC331A6005B0F0BCBB46B24682
:10307000A946A046F0BDC046CC300000F0B5DE4603
:1030800057464E464546E0B51600DC22924685B0CE
:103090001C004B0001935B18DB00C518AA44524684
:1030A000126893462A00CC32126800921B4AAB1871
:1030B000802292021A60002C1ED08023DB049946E5
:1030C000012398463300D8352E0055469A46144FB2
:1030D000029003912000FFF7EBF84A4643011343A7
:1030E0002B6053464246C34013403B433360631E4C
:1030F0001C40EFD102980399019B5B18DB00C318B9
:103100001A005946DC321160009ACC331A6005B0BF
:10311000F0BCBB46B246A946A046F0BDCC3000008C
:1031200080E00000944601228A4070B5C6461C002B
:10313000036800B593430360002C30D04A00531855
:10314000DB00C3181D002668C8352E60A66804354C
:103150006E606668E468DC332E601C605318DB0028
:10316000184CC21812198024240614601460164AE0
:103170000C1D8A40826001221500A5408024083180
:103180008A40A40104192560614622601F22C018EC
:103190000A40D8300260002040BCB04670BD4A00F2
:1031A0005318DB00C3181D008026C83576022E6038
:1031B000C0263603AE60F82604357602DC332E6076
:1031C0001C60CBE7D010000001010101F0B598238D
:1031D0004746CE46A14A80B5D758973B1C0089B0D8
:1031E0003C403B4200D19CE0136D9B059B0F00D0FF
:1031F000CAE0802205A8520001210280838002F0EB
:103200008FFCC022964B92001A6511239846954B6D
:10321000954D99467B0500D48DE08022904B934ECE
:1032200092051A65737F05AC0193B178C846029187
:10323000F08A0390300000F0E9FC08220021200011
:10324000FFF79AFB022302990398019A2171637098
:10325000A270637101210790200002F061FC2C0034
:10326000FB066AD57D4B9D6D01232B4200D0BCE04F
:103270007E4E0324B946203603E002342036212C4A
:1032800034D0002D00D1ADE00122631E9A4013001E
:103290002A4200D081E00123A3402B42EDD0704AA6
:1032A000300093659D4300F0C1FD0028E5D0737F99
:1032B000B278F18A05AF300001930292039100F0D9
:1032C000A5FC082200213800FFF756FB02230399D2
:1032D0007B70029A019B3A71BB70380007910234EF
:1032E000012102F01DFC2036212CCAD14F46002DB1
:1032F00000D0AEE0444608253D4221D140233B4268
:1033000004D080221C43564B12051A65BB0600D51B
:1033100098E0BC4200D090E009B0C0BCB946B046CD
:10332000F0BD1023984682238025DB009946ED00EE
:103330007B0500D571E7FB0694D408253D42DDD01E
:103340008022474BD2021A650222444B2C43DB6C8D
:103350001A42D3D0454805AE437FC5820193817898
:10336000029100F053FC082200213000FFF704FB1B
:1033700002220299019B3171300001217270B370F9
:10338000B56002F0CDFBB9E700236A4601219382C4
:10339000138305A802F0C4FB33E79543304A30009D
:1033A000936500F043FD002800D174E7737FB27885
:1033B000F18A05AF300001930292039100F026FCE0
:1033C000082200213800FFF7D7FA022303997B7007
:1033D000029A019B3A71BB7038000791012102F0FB
:1033E0009FFB58E74F46444685E7204E9D43726851
:1033F000300012681A4A936500F018FD002800D1C9
:1034000037E7737F05AC0193B27830000292F18AFE
:10341000039100F0FBFB082200212000FFF7ACFA2B
:10342000022303996370029A019B2271A37020000A
:103430000791012102F074FB1BE721000C48794041
:10344000FDF71AFC8022064B12060A481A65FDF7A2
:1034500013FC29000848FDF70FFCC046000011507E
:103460000030115011040000010400000010002081
:10347000985C0010845C00106C5C001070B500F06B
:10348000A5FB0C230D4C0E4DA36729000520FDF76D
:10349000FDFD2900FF220520FDF712FD80220021FD
:1034A00092000848FFF768FA03232364064B074A93
:1034B000E36490230120E25070BDC046000011502B
:1034C000CD31001000100020008600207B04000099
:1034D0007047C0467047C046044B186DC0239B0020
:1034E0001840431E9841C0B27047C04600001150BA
:1034F000064B10B5186D8005800F012802D00228F8
:1035000001D1002010BD0248FDF7B6FB00001150AC
:10351000AC5C0010F8B50E1E26D0144D80232C0094
:103520009B0000272034ED1802E02034AC421BD071
:10353000637FB342F9D12378002BF6D00121A37F1A
:1035400020005A1C91400A0009499B004A65094A1B
:103550009B181F60636827701F60A36820341F607A
:1035600000F054FBAC42E3D1F8BDC046001000208F
:10357000003011500400115010B501210520FDF755
:1035800063FC10BDF0B5CE46474680B5D3780E003B
:103590009B07990F894683B0002B67D02020774B7B
:1035A000185C002800D1C1E04020185C002800D140
:1035B000C3E06020185C002800D1C0E08020185CC7
:1035C000002800D1BDE0A020185C002800D1BAE09E
:1035D000C020185C002800D1B7E0E020185C00286B
:1035E00000D1B4E080204000185C002800D1B0E099
:1035F00090204000185C002800D1ACE0A0204000E2
:10360000185C002800D1A8E0B0204000185C002819
:1036100000D1A4E0C0204000185C002800D1A0E048
:10362000D0204000185C002800D19CE0E020400041
:10363000185C002800D198E0F0246400185D002890
:1036400000D194E0FF204000185C4D4FC5001C19CC
:10365000EF19A7604B4F8001ED194B4FAC46C019D5
:103660004A4F65604740B846E0600BE0434B48482E
:10367000484C98604848DC6084465860C020400050
:1036800080461C0095781779507992790002009253
:103690007F222A403843A570EF0955425541E57015
:1036A0004D464005400D2083E576A020454689061D
:1036B000000629430143009866776770002831D1DE
:1036C00060460160012121709C4225D015043543DC
:1036D000002F02D180239B041D43304BA8461F6D51
:1036E000BF05BF0F012F02D0022F43D100273000AA
:1036F00000F0CCFDB84203D08023DB042B43984676
:10370000A37F26499A005218414651600122013395
:103710009A401300224A5365012003B0C0BCB94649
:10372000B046F0BD013800040143C9E70124601E22
:103730006401C0B21D19A87787E70224F7E70324C4
:10374000F5E70424F3E70524F1E70624EFE707246F
:10375000EDE70824EBE70924E9E70A24E7E70B246F
:10376000E5E70C24E3E70D24E1E70E24DFE7D23C94
:10377000FF3CDCE70B48FDF77FFAC0460010002055
:103780008800105008001050000210500000105027
:1037900080001050800110500001105000001150A6
:1037A00000201150AC5C0010F0B546464F46D6469E
:1037B000C0B582B098466B461F8D7F231E000D005A
:1037C0001640134200D19EE02021C44B595C0029D1
:1037D00004D03D21595CA94200D10EE14021595C41
:1037E000002904D05D21595CA94200D113E1602178
:1037F000595C002904D07D21595CA94200D111E116
:103800008021595C002904D09D21595CA94200D136
:103810000FE1A021595C002904D0BD21595CA942C7
:1038200000D10DE1C021595C002904D0DD21595C93
:10383000A94200D10BE1E021595C002904D0FD210F
:10384000595CA94200D109E180214900595C002955
:1038500005D01E21FF31595CA94200D105E190211C
:103860004900595C002905D03E21FF31595CA9422D
:1038700000D102E1A0214900595C002905D05E2158
:10388000FF31595CA94200D1FFE0B0214900595CE9
:10389000002905D07E21FF31595CA94200D1FCE00E
:1038A000C0214900595C002905D09E21FF31595C97
:1038B000A94200D1F9E0D0214900595C002905D086
:1038C000BE21FF31595CA94200D1F6E0E021490058
:1038D000595C002905D0DE21FF31595CA94200D195
:1038E000F3E0F0214900585C002806D0FE21FF31AA
:1038F000595C0020A94200D1FAE002B0E0BCBA460F
:10390000B146A846F0BDD3099946744B99781C007E
:10391000914247D0A2704A46E17E62707242724183
:10392000E068E2706E4A890642400A43A021090617
:103930000A43616865770A60012222709C4231D097
:103940004B4632042A439246002B03D180239B042A
:103950001A439246634BD1461E6DB605B60F012E33
:1039600003D0022E00D0CBE00026280000F08EFC11
:10397000B04204D080235246DB041A439146A37F11
:1039800058499A00521849465160012201339A4021
:103990001300554A536520003A00414600F03CFAB6
:1039A0000120AAE73A001800414600F035FA360433
:1039B0004C4B2E431E604E4603241B6D4B4A013E6A
:1039C000A6431B0AB6181C40012C03D0022C00D0C1
:1039D00096E00024280000F059FC031B5A1E934176
:1039E0009B0133430122190091433E4AD1640C21CB
:1039F0000339FDD20120D3647FE72221595C914233
:103A000000D0EBE6012464011C19A1789142C2D0D8
:103A1000D10989467EE74221595C914200D0E6E611
:103A20000224F0E76221595C914200D0E8E60324C9
:103A3000E9E78221595C914200D0EAE60424E2E7FA
:103A4000A221595C914200D0ECE60524DBE7C221BB
:103A5000595C914200D0EEE60624D4E7E221595C9D
:103A6000914200D0F0E60724CDE781214900595C5E
:103A7000914200D0F3E60824C5E791214900595C42
:103A8000914200D0F6E60924BDE7A1214900595C26
:103A9000914200D0F9E60A24B5E7B1214900595C0A
:103AA000914200D0FCE60B24ADE7C1214900595CEE
:103AB000914200D0FFE60C24A5E7D1214900595CD2
:103AC000914200D002E70D249DE7E1214900595CB5
:103AD000914200D005E70E2495E7C0460010002073
:103AE00000001050000011500020115009860020E5
:103AF000F1214900595C0F24914200D0FDE682E794
:103B00000148FDF7B9F8C046AC5C001000207047D2
:103B100010B5224B08001178802419705178640088
:103B2000597091789970D178D9701179197151794A
:103B3000597191799971D2791949DA71194B1A4AE7
:103B4000D96000219A605970184AD97618495C806A
:103B50005A6058771160012208211A7099829A766A
:103B6000144B18601C6DA405A40F012C02D0022C6C
:103B700011D1002400F08AFBA04209D00E4A0F495F
:103B80000C4BDA640C22033AFDD20120D96410BD3B
:103B90000B4A0C49F4E70C48FDF76EF80000105092
:103BA00080011050001000208000105000011050C3
:103BB000800100A0000011504286002043860020B2
:103BC0000286002003860020AC5C001080220A4B95
:103BD000520410B51A60094B09491A6010000B68AD
:103BE0009843FBD18022002152010648FEF7C4FE13
:103BF0000922054B5A6710BD00E0004000F000406C
:103C000008C00040000010500000115000238376CF
:103C1000436103617047C046F0B5C64600B54368CE
:103C2000028B1B6882B09C46838A161C9A4200D97C
:103C30001E1CC278802117007C1EA741B6B2C900A5
:103C400031437F030F4301214A409B1BC2704278DE
:103C50009BB28382002A32D10269002E2AD0731EC1
:103C6000C4680193062B00D8B9E0230013439B07D7
:103C700000D0B4E0631E9B1A022B00D8AFE00023F3
:103C8000B508AD00D158E15004339D42FAD1B54298
:103C90000ED0019B6419591B5319525D2270019A71
:103CA000AA4205D05A786270012901D09B78A3708E
:103CB0000269838A92190261802212021743002B43
:103CC00002D18022D201174380224E4952010C6C4E
:103CD0003A438178A4071FD549061FD063464A4955
:103CE0000B40190080239B050B4341680B608368E0
:103CF0001968490500D580E04449114019604149DF
:103D0000096C890703D40C23033BFDD283681A6036
:103D100002B080BCB846F0BDC909DFD0002BDDD0B1
:103D2000018B0F1C994200D91F1CC178BFB2DB1B4D
:103D30009CB20B0080255E1EB341ED003D435B034A
:103D40002B4398460123594043788482C170002B4D
:103D500033D10169002F29D0C3687C1E1E00019455
:103D60004036062C42D93F335B1A022B3ED90B005A
:103D700033439B073AD10023BD08AD00CC58F45023
:103D800004339D42FAD1AF420ED04C19495D7619E9
:103D9000019B317001995B1BA94205D0617871705C
:103DA000012B01D0A178B1700169848AC9198023DF
:103DB000016141461B0219438846002C04D180232F
:103DC0004146DB011943884643461E0463461049B9
:103DD00032430B401900A023DB050B4385E700238A
:103DE000D15CE1540133B342FAD161E70023CC5CEA
:103DF000F45401339F42FAD1D6E781780548FCF7A5
:103E00003BFFC04600001150FFFFFFAFFFFBFFFF6D
:103E1000FFFFFFDFBC5C0010002310B5C38201333D
:103E2000828283760161FFF7F7FE10BDF0B5837ED5
:103E300083B09C46002B00D1A7E083681A681A68FB
:103E400043789205950D002B40D00169002D26D0B6
:103E50006B1E1F00C668062B55D90B0033439B070A
:103E600051D14B1E9B1B022B4DD90023120E9200E9
:103E7000F458CC5004339342FAD19D420ED0F45CF6
:103E8000FA1AC91801920C70F2189F4206D05378A2
:103E90004B70019B012B01D093788B700169C38A11
:103EA000028BEB1849199BB20161C38241689542AC
:103EB00014D30968490001D5954215D0838A002B97
:103EC0000FD0FFF7A9FE00239C460AE0C38A028BAD
:103ED000EB189BB24168C3829542EAD200238382E9
:103EE0000B68604603B0F0BD816845780968090C2D
:103EF00089058C0D002D0DD11B19C3829442DDD292
:103F000000238382EDE70023F25CCA5401339D4213
:103F1000FAD1C3E70569002C2BD0C268631E1600D6
:103F20001F004036062B29D933002B439B0725D190
:103F30002B00413B9B1A022B20D900230A0E920032
:103F4000F158E95004339342FAD19C420ED0F15C0F
:103F5000FA1AED1801922970F2189F4206D0537890
:103F60006B70019B012B01D09378AB70C38A0569FC
:103F7000028BE3182D19C3820561BFE70022B35CF1
:103F8000AB5401329442FAD1F0E781780148FCF752
:103F900073FEC046DC5C0010C27843691A7070473B
:103FA000F8B5CE464746304D81462B7880B58342E2
:103FB00002D12B79DB0703D4C0BCB946B046F8BDAB
:103FC000002928D1002A02D0AB789342F4D1274BA4
:103FD000002B02D0012000E000BF254E254B00241D
:103FE00098463278244F0EE0E1003B68091B8900B7
:103FF0005B18002B03D001209B699847327801346D
:10400000E4B294420BD8A242EED8A21AD3009B1A73
:104010009B004344EFE76B788B42CDD1D2E701217F
:104020004846FFF777FA562200212800FEF7A4FC45
:1040300028000822FF210D30FEF79EFC28002022D8
:10404000FF211530FEF798FC0C4C237B012BB3D1DC
:1040500001210B4D4942286801F052FD00232868D8
:10406000637301F025FDA7E78C0C00200000000021
:104070006C120020A45D0010700A0020740A002059
:10408000EC0D0020F0B54E46DE4657464546E0B5FD
:1040900004000E008DB001285DD1764B1F78002EF4
:1040A0002FD1754D6B7BD9B2022B00D188E003294B
:1040B00054D001291ED1714B9846DB88002B00D0CB
:1040C00081E001216E4E49423068EA8101F018FD1D
:1040D000032330686B7301F0EBFC43461A7801232D
:1040E000D2095A400023D20121003800D2B20093F5
:1040F000FFF75AFB0DB0F0BCBB46B246A946A0463E
:10410000F0BD5E4B04AA03CB03C21120150002AB25
:1041100002220021C018FEF72FFC01212C70564C02
:10412000EE70E389564E6B6004ABAB602368494286
:10413000EB60636830682B61A3686B6101F0E0FCA1
:1041400000233068637301F0B3FC2B69002BD1D0DE
:1041500028009847CEE74B4B1F78A0E79023474AAB
:104160001B01904612889A4243D0454B99464246DD
:1041700004AB03CA03C311201E0002AB02220021BC
:10418000C018FEF7F9FB347000244F460121F4708B
:10419000EB894942736004ABB3602B683868F36005
:1041A0006B683361AB68736101F0AAFC38686C73AB
:1041B00001F07EFC3369002B9CD03000984799E7D2
:1041C0002E4B98467DE72E4E0239306801F098FC60
:1041D000022330686B7301F06BFC4046802102784B
:1041E0002B680A40C188380000912100FFF7DCFAF3
:1041F00080E7012CB9D11F4B214A1F003833AB4651
:1042000091461D000394260018367600E3B2BE19CD
:104210009A467379DB070DD5524601213878FFF7AE
:1042200075FC01227379681E934373714B461968BC
:1042300001F0A4FA6600BE1931367379DB0711D597
:10424000802352465B421A430121D2B23878FFF7ED
:104250005DFC012273792800934373714B46196802
:1042600001F08CFA01340235102CCCD15D46039C50
:104270007DE7C0468C0C0020740A0020E40C00206E
:10428000EC0D0020840A00207047C046012802D1AE
:10429000034BD8787047034BD8780007000FF9E735
:1042A0008C0C0020840A0020F0B54F464646D646C6
:1042B000C0B5384E050033780F00984210D0FF2B60
:1042C00010D0390028003570FFF7D8F8002804D145
:1042D000E0BCBA46B146A846F0BD2800FFF74CF94D
:1042E0000120F5E72C4C2000143CFDF74BF8200092
:1042F00001F084FB294B1C60294C2000FDF734F8A9
:10430000284B1C60284B002B40D0284B18009846A7
:1043100000E000BF264B18600022264B00211A60E7
:1043200025481032FEF728FB244C5622002120009D
:10433000FEF722FB20000822FF210D30FEF71CFBB8
:1043400020002022FF211530FEF716FB43461A7885
:104350001B4B00249946164B9A460FE05346E1004A
:104360001B68091B89005B18002B03D05B6898470A
:1043700043461A780134E4B29442A2D8A242EDD85E
:10438000A21AD3009B1A9B004B44EFE7074B9846B9
:10439000C2E7C046A40600209C060020F80D0020BD
:1043A000F00D0020EC0D0020000000006C12002039
:1043B000700A0020840A0020740A00208C0C00205F
:1043C000A45D0010F0B5CE46474680B543780400A2
:1043D00083B0002B0ED18368002B0BD003781F1EF7
:1043E0000FD13F4BDB78DB0604D53E4D6B7BA846F7
:1043F000002B11D00025280003B0C0BCB946B04640
:10440000F0BD012BF6D1384B1B79DB07F2D5354DCA
:104410006B7BA846002BEDD10121344E4942306818
:1044200001F06EFB6B7B3068DAB20600002B02D025
:1044300001F03EFBDEE701232F736B73E368EA8133
:104440002B60236908226B606369A168AB60284B0D
:1044500018009946FEF796FA300001F029FB012F6B
:104460002DD1214B18782369002B05D04A463900FD
:10447000FFF74EFB0500BEE704236A46D3716B4687
:104480004246073393601B4B390053604A46FFF79F
:104490003FFB051EAED0184E184F6B46DB79042B40
:1044A00010D13378FF2BF8D0386801F0FFF90028DD
:1044B000F3D13378FF2BF0D000F068F8EDE7084B2C
:1044C0001878D0E76369002B02D06A46D2791A7057
:1044D0006B46DB79E3704346DB8963608BE7C0465C
:1044E000840A0020740A00208C0C0020EC0D0020AF
:1044F000E40C0020993F0010A4060020F80D0020D5
:1045000010B51C4C88B02078FEF7F2FF0F22030094
:10451000E0781340904318430022E0700A20164BC5
:1045200000211A7068440532FEF726FA6A46134BDA
:104530000021138108232078938102AAFFF722F833
:10454000002801D108B010BD0D4B08220093802334
:1045500000211B0302A80193FEF70EFA6B46049399
:10456000084B02A80593084B069307230793FFF710
:1045700029FFE7E7840A00206F12002007050000EA
:1045800080060001EC0C0020ED470010F0B5574606
:104590004546DE464E46874BE0B59B46864B8246F7
:1045A0000027984687B0854E03AD34686269EFF303
:1045B000108172B61368002BFCD0BFF35F8FA1612E
:1045C0002000290001F07AF96269A369BFF35F8FC7
:1045D000176083F31088002861D06B78022B15D008
:1045E0000CD8002B21D06A7929792878FFF7D8FCDC
:1045F00034686269EFF3108172B6DBE7032BD4D124
:104600006B68002BD1D0A8689847CEE77F23297923
:10461000AA780B409946002A48D1002B3FD10020B0
:10462000AA686979FFF72EFDBFE74346DB78DB0612
:104630005FD5434628781B7898420BD141462A79AA
:104640004978914206D144466979A47889468C42DA
:1046500000D181E0306801F029F93468814662694F
:10466000EFF3108172B61368002BFCD0BFF35F8F9D
:10467000A1612000290001F06FF96269A369BFF30D
:104680005F8F176083F31088002804D05246697842
:104690002878FFF7F9FD4B46002B00D185E707B0DE
:1046A000F0BCBB46B246A946A046F0BD012AF6D1F1
:1046B00058460079C007F2D55800CC095844001973
:1046C00004003034637993436371042362799A431D
:1046D0004B466271002B64D0394A437D1278934275
:1046E00031D3DCD137484469AB686A790120A047EF
:1046F0005BE743461022DB78414613434246D370C2
:1047000028782B796A7908704B708A70002B00D05A
:104710004BE7FEF7DDFE322000F0DEFF434618785F
:10472000FEF7D8FEE120400000F0D6FF434618789F
:10473000FEF7D2FE00283AD143461022DB7893439D
:104740004246D37031E7204AD800C31A10689B0054
:10475000C0180028C7D1A2E71C4C217B002917D123
:10476000617B002914D000220021FFF7CFF901213D
:10477000174B49421868019301F0C2F90023637393
:10478000019B186801F094F96B79287899462A7989
:104790004346494618705A709970002A00D004E7C1
:1047A000B7E70120AA686979FFF76CFCFDE6FFF71F
:1047B000A7FEFAE68C0C0020840A0020F80D0020E9
:1047C0006C120020A45D0010700A0020740A002002
:1047D000EC0D002010B5044B1B78FF2B02D0080015
:1047E000FFF7D4FE10BDC046A4060020F0B5DE469B
:1047F00057464E464546E0B5C17804008FB00029C3
:104800000AD1CE4B067819704369033B092B20D897
:10481000CB4A9B00D3589F46CA4DEB78DB060DD59B
:10482000C64A1378022B09D864200133137000F0B4
:1048300053FF2000FFF7C6FD002803D11022EB78BC
:104840009343EB700FB0F0BCBB46B246A946A046FE
:10485000F0BD1021BB4AD3788B43D370F2E7012E11
:10486000F0D10422B84F3B7913433B71B74B1A0088
:1048700058891D7A08328018AD18B54B0190A842AE
:1048800000D8E0E19946B34B04969A46B24B0591A5
:104890009B462A78002A00D1C0E16B7801260B2BB9
:1048A00002D1EE78AD186B78042BCBD1019B31008F
:1048B0005A1B280092B200F0D1FF80460828C1D9C7
:1048C0004B4600241A780393029617E05B46E100FA
:1048D0001B68091B89005B18002B0AD0DE682A00C0
:1048E000434601213878B047002800D0FBE04B4612
:1048F0001A780134E4B2A24200D20AE1A242E5D819
:10490000A21AD3009B1A9B005344E7E780228F4DE5
:1049100052006B89934295D8904A06AF06920022C6
:1049200008ACBA80FB80002120000832FEF724F892
:104930008B4B26700C930B23083520000A970B95A0
:104940000D93FFF73FFD7DE7864B08AC06930023F0
:104950001022002120000793FEF70EF806AB267008
:104960000A937F4B20000C930C230D93FFF72AFD35
:1049700068E70A2006AB05220021C018FDF7FCFFFE
:104980006A46794B00211384082393846D4B08AA4F
:104990001878FEF7F7FD002800D153E7734B082283
:1049A0000693802300211B0308A80793FDF7E4FF6B
:1049B00006AB0A936E4B08A80B93694B0C93072325
:1049C0000D93FFF7FFFC3DE760490B7B092B00D1FE
:1049D00038E75D4B1A79D207D00F002A00D031E7B3
:1049E000584A14881C809478D2789C70012412074D
:1049F000120FDA701A7922431A71CA7B07905A7122
:104A00005C4B1022002108A80693FDF7B5FF06AB0A
:104A10000A93534B08A80C9308230D93FFF7D2FC7D
:104A200010E7022000F058FEA3689E78012E00D007
:104A300008E70222444D00212B7908AC13432B7167
:104A4000404B1878FEF766FD0A2006AB05220021D0
:104A5000C0186F79FDF790FF434B220001212878A1
:104A60002380A780FEF78EFD002800D1EAE63F4BA9
:104A700008220693902300215B0320000793FDF793
:104A80007BFF06AB26700A93394B20000B93344B07
:104A90000C9309230D93FFF795FCD3E6012E00D06C
:104AA000D0E62A4D284B2A8A08ACDA806A8A00218F
:104AB0001A81EA8A20005A812A7E08351A73274B08
:104AC0000822069390231B030793FDF755FF06ABBF
:104AD00026700A93224B20000C930A230B950D930A
:104AE000FFF770FCAEE6029E002E0CD0AB78F618F5
:104AF000F6B2FA18517BFF2900D0A3E60133DBB2EE
:104B00005473B342F5D12300424629001A4800F0FD
:104B10008BFE019B4544AB4200D9BAE6049E059941
:104B2000039B7C7B1A780C4B1868944226D32BD1BC
:104B3000084B1B690120984784E6C0466F1200208D
:104B40007C5D0010840A00208C0C0020E40C002006
:104B50006C120020A45D0010700A00208006000284
:104B6000ED47001000090100070500008006000164
:104B7000EC0C002000050100A10C0020E3001B1B31
:104B80009B00C318002BD4D1BC7B944236D30121A7
:104B90009442CDD0FC7B944238D302219442C7D0BA
:104BA0003C7C94423FD303219442C1D07C7CA242FE
:104BB00041D80421A242BBD0BC7CA24245D80521E9
:104BC000A242B5D0FC7CA24247D80621A242AFD077
:104BD000397D914248D21C234B43C3180721002B37
:104BE000A7D11021224AD3788B43D370214B002BBD
:104BF00000D127E6012000E000BF23E6E3001B1BF5
:104C00009B00C318002BC5D0310092E7E3001B1BAB
:104C10009B00C318002BC3D002218AE7164B049EC9
:104C2000059903937CE7E3001B1B9B00C318002B33
:104C3000BCD003217DE7E3001B1B9B00C318002BA6
:104C4000BAD0042175E703936AE7E3001B1B9B00BE
:104C5000C318002BB6D005216BE71C236343C31890
:104C6000002BB5D0062164E79142BAD107215FE756
:104C7000840A0020000000006C12002000487047E9
:104C8000EC0C002010B5012814D10B4A1379DB0776
:104C9000D80F002B00D110BD084B7F201B680840A7
:104CA0009C46CB0935334000C0186146801800F09F
:104CB0003DFDF0E70020EEE78C0C0020EC0D00201D
:104CC00010B5012814D10B4A1379DB07D80F002B3C
:104CD00000D110BD084B7F201B6808409C46CB09C3
:104CE00035334000C0186146801800F047FDF0E7FA
:104CF0000020EEE78C0C0020EC0D002070B50500C4
:104D000082B001280BD17F24114E0C40B4466400C0
:104D1000C8096444241830346079C00702D50020E3
:104D200002B070BD01266079304360716046007842
:104D3000009313000A000121FEF736FD0028EFD191
:104D400004226379AB436371637993436371E6E74C
:104D50008C0C002070B504000D0001280CD10B4E06
:104D60002800F17800F026FD002804D02A00210058
:104D70003078FEF707FC70BD054E2800F178090772
:104D8000090F00F017FD0028F0D1F4E78C0C00208B
:104D9000840A0020F0B55746DE464E464546E0B54B
:104DA00083B089460CA99B4608C904001F000B88E4
:104DB00092469846002810D13F4BDB78DB0603D59E
:104DC0003E4D6B7B002B12D00024200003B0F0BCC2
:104DD000BB46B246A946A046F0BD0128F4D1384BE7
:104DE0001B79DB07F0D5354D6B7B002BECD1012116
:104DF000344E4942306800F083FE6B7B3068DAB293
:104E0000002B02D000F054FEDEE701236B73EA8131
:104E10000E9A2D4B6A600F9A5946AA602B4A2C7342
:104E2000138053461B020B4353804B4693804346EB
:104E300016002F60D38000F03BFE012C2CD1204BBC
:104E400018780E9B002B05D021003200FEF760FE83
:104E50000400BAE704236A46D3716B460733AB609C
:104E60001B4B210032006B60FEF752FE041EABD0DC
:104E7000184E194F6B46DB79042B10D13378FF2B7A
:104E8000F8D0386800F012FD0028F3D13378FF2BFA
:104E9000F0D0FFF77BFBEDE7074B1878D1E70F9BCE
:104EA000002B03D01A006B46DB7913706B46DB795D
:104EB0002B00DB8989E7C046840A0020740A0020A1
:104EC0008C0C0020EC0D002081060000E40C00207A
:104ED000993F0010A4060020F80D00208C4670B504
:104EE000012800D076E0524C63460133DBB2072B39
:104EF00000D98DE04F4A11784F4A1568E218567B69
:104F0000B14214D9F200921B9200AA18002A0AD1C9
:104F100063460233DBB2082B51D0E218567BB14214
:104F200008D80DD1454A19001269904770BDB142A9
:104F3000F8D0EDE7F200921B9200AA18002AF2D1F5
:104F400063460333DBB2082B39D0E218567BB142FB
:104F500042D8E7D063460433DBB2082B2FD0E218E7
:104F6000567BB1423FD8DDD063460533DBB2082B18
:104F700025D0E218567BB1423CD8D3D063460633E5
:104F8000DBB2082B1BD0E218567BB14239D8C9D00E
:104F900063460733DBB2082B11D0E218567BB142CF
:104FA0003AD8BFD06346FF2B09D1237D8B423AD23A
:104FB000DA00D21A9200AA180723002AB3D11021CE
:104FC0001F4AD3788B43D3701E4B002BAED000E02A
:104FD00000BFABE7002487E7F200921B9200AA18FB
:104FE000002AB7D09FE7F200921B9200AA18002A6D
:104FF000BAD098E7F200921B9200AA18002ABDD0FE
:1050000091E7F200921B9200AA18002AC0D08AE70A
:10501000082B00D08AE7D2E7F200921B9200AA1870
:10502000002ABFD07FE78B42C9D107237AE7C04669
:105030008C0C00206C120020700A0020A45D00106F
:10504000840A00200000000070B5836802009C46BE
:1050500019791F4B00781C7884420AD09C7B8442CB
:1050600023D01C7F844226D02A241C5D844228D071
:1050700070BD5C788C42F1D1002100240028F7D06B
:10508000D278002A06D16546E200121BAD785200A4
:105090009A1895710F4A002AEAD0E200121B5200BA
:1050A0009B189A7900E000BFE2E7DC7B8C42D8D104
:1050B00001210124E2E75C7F8C42D5D10221022448
:1050C000DCE72B241C5D8C42D2D103210324D5E7DD
:1050D000B006002000000000F0B54646D6464F4618
:1050E000C0B58268060053788CB00A3B012B02D908
:1050F000C378002B12D1644C537917793578227814
:105100001B023B43AA4217D0A27BAA4241D0227F76
:10511000AA4245D02A22A25CAA4205D00CB0E0BC2B
:10512000BA46B146A846F0BD2B22A25CBA42F5D1E0
:1051300003229246904605E06278BA42E4D100220A
:1051400092469046002DE9D07269022A74D02ED87A
:10515000002A52D04246D3009B1A5B00E3185B78CA
:1051600004AEB3800023494A4949127806AC318025
:105170007280F380102200212000FDF7FDFB454BDB
:1051800025700A930223200008960B93FFF71AF963
:10519000C4E7E27BBA42BAD1012292469046D1E7F7
:1051A000627FBA42B6D1022292469046CAE7032AEB
:1051B000B4D1FFF763FD4246D300991A49009946DE
:1051C000635CAB42AAD1B36861189A79DB791B02A0
:1051D000134301220A71304A002A04D002005146CA
:1051E0002800FBF78FF94B4642469B1A5B00E318F9
:1051F00028005978FFF772FE90E74046C100091A6F
:10520000490061184E7904AF71424E41234906AC02
:105210000491FF210B40BB80FA8000211022200066
:10522000FDF7AAFB1B4B25700136200008970A9357
:105230000B96FFF7C7F871E74246D3009E1A9946CE
:1052400080237600A61932895B009A420BD9FF3B76
:105250003371114B002BC6D0002300225146280089
:10526000FBF750F9BFE7F479FFF708FD0323039339
:10527000084B2200029333893900019300900023E8
:105280002800FFF787FD49E7B00600206D120020D7
:10529000210B0000D950001005050010210A000064
:1052A000021E0ED003290CD8074B00209C46CB00D1
:1052B000591A63464900CB5C934201D16144487955
:1052C00070470020FCE7C046B006002030B589B02A
:1052D000002813D0032911D8154B00249C46CB007D
:1052E000591A63464900CD5C854204D10B006344E2
:1052F0005979002904D1200009B030BD0024FAE713
:1053000068465B780B49428001808380C48010220C
:10531000002102A8FDF730FB6B461D720493064B7B
:1053200002A807940693FFF74DF80400E3E7C04690
:10533000B0060020210B000049500010F0B50C0011
:1053400083B000280FD003290DD8CB00104A5B1A78
:105350005B009D5C854206D1D6182800B178FFF726
:1053600091FC002802D1002003B0F0BD00200949C3
:10537000E20173895218B178019000902800FFF77C
:10538000BDFC0028F0D12800B178FFF799FCEAE7CE
:10539000B0060020880A002010B5382200210248FB
:1053A000FDF7EAFA012010BDB00600200120704789
:1053B0002C4A70B51D00137883420DD0937B834235
:1053C00025D0137F83422CD02A230024D35CA4460B
:1053D000834230D0604670BD93788B4202D0D37840
:1053E0008B42EBD1002300229C46002837D0C9090C
:1053F00001292CD01C4B002B06D01C49D20152187D
:10540000ABB2614600E000BF01239C46E2E7137C9B
:105410008B4202D0537C8B42D3D1012301229C4684
:10542000E3E7937F8B4202D0D37F8B42CCD1022320
:1054300002229C46D9E72C23D35C8B4203D02D2338
:10544000D35C8B42C6D1032303229C46CDE7084997
:10545000D2015218ABB26146FBF7B0F8D4E7002393
:105460009C46B7E7B006002000000000C80A0020F4
:10547000880A002070B5254D04002B7883420AD09D
:10548000AB7BA34215D02B7FA34221D02A23EB5C18
:10549000A3422DD070BD1E4B002B02D00021FBF784
:1054A00053F80E2200212800FDF766FAAB7BA342D9
:1054B000E9D1174B002B03D001212000FBF744F862
:1054C0000E2200211348FDF757FA2B7FA342DDD1AE
:1054D0000F4B002B03D002212000FBF735F80E22E2
:1054E00000210D48FDF748FA2A23EB5CA342D1D1F5
:1054F000074B002B03D003212000FBF725F80E22D9
:1055000000210648FDF738FAC4E7C046B00600207F
:1055100049050010BE060020CC060020DA06002057
:10552000F0B54E46DE4657464546E0B51400527982
:105530000E0083B0032A1BD12179CA00521A1232FD
:1055400092B29A4214D82378E31898465B78212BBC
:105550000ED1384A13789246002B65D0937B002BEE
:1055600064D0137F002B5ED02A23D35C002B07D09E
:10557000002003B0F0BCBB46B246A946A046F0BD31
:1055800003339B465A46D30001939B1A52465B0055
:10559000D65400292BD0424615785344002799460B
:1055A000551909E04946CA708B8123797A1C170086
:1055B00093421CDD2B78ED186B78052BD8D1290090
:1055C0003000FFF7C7FB0028D2D06B7929791B0286
:1055D0000B43AA785B055B0DD1090129E2D149464D
:1055E0008A704B8123797A1C17009A42E2DB5A4673
:1055F0004146019B9B1A5B00A27853445A708A79FA
:10560000DA710A00127AC97912020A431A810A4A27
:1056100012789A71A279012A01D00120A9E7E279D2
:1056200001205A71A5E702239B46ABE701239B4665
:10563000A8E7C046B00600206D12002030B5234B0D
:1056400004001A7889B082420CD09A7BA2422DD0F5
:105650001A7FA2422FD02A229A5CA24230D0012087
:1056600009B030BD5A788A42EFD10020002CF6D024
:10567000C200121A52009B185B7902A85A42534189
:105680005D1C134B6A4600936B46998000230021F2
:10569000D3801022FDF770F96B461C7204930D4BFA
:1056A00002A806930795FEF78DFED8E7DA7B8A42BB
:1056B000CED10120DAE75A7F8A42CCD10220D5E749
:1056C0002B229A5C8A42CAD10320CFE7B006002081
:1056D000210A0000D950001010B5FCF7F7F810BDF2
:1056E00000B5030083B0002910D00020012B07D89B
:1056F0000A78002A04D00C48C2540120022A01D0A2
:1057000003B000BD1800FEF7CFFDF9E702236A469B
:10571000002001A99380FEF7C7FD0028F0D00222E7
:10572000014B1A70ECE7C046880C002070B50400ED
:1057300023780800DB070E00DD0F002B16D123783D
:105740005B0701D5280070BD0121494200F0D8F95E
:105750002378DB07DD0F002B0AD123785B0708D401
:105760000422237801251343237002E00025E9E792
:105770000025300000F09CF9E4E7C04670B50D004C
:10578000012104004942280000F0BAF923785B07A0
:10579000DE0F002B04DB280000F08AF9300070BD1A
:1057A0002378DB0704D40422237893432370F2E7A1
:1057B0000026F0E7437902791B021343C2785B05A8
:1057C00092075B0D920F022A1AD0032A0BD00020F9
:1057D000012A07D102394A425141104A8918994297
:1057E0004041C0B2704702394A1E91410C4A4942B9
:1057F000114080220020D200891899424041F1E7EF
:10580000022904D0002040229A424041EAE7054A9A
:10581000981843425841C0B2E4E7C046FF03000075
:1058200040FCFFFF00FEFFFF8446881830B51C00D7
:10583000814206D24A78052A04D00A78891888421B
:10584000F8D830BD7F228B781A4052006244DB09C1
:10585000D4540A7889188842ECD8F2E770B503006E
:105860001400002920D00278002016000139CDB2A2
:10587000301880B29B18A04205D30FE0081880B200
:105880005B1884420AD91978002907D05A780B2A64
:105890000BD0042AF2D1DA78002AEFD1002D04D0FF
:1058A000013D1A78EDB2E3E7002070BD038940891D
:1058B000181A43425841C0B27047C04670B5040040
:1058C00000690D00002803D00121494200F018F9B9
:1058D000238962899C4698B291B2A388944532D3B9
:1058E000421A92B2002A27D0934208D298422FD36C
:1058F000C01A81B261818B4203D8C91A89B28B4226
:10590000FBD9E28823685204520C514328005918ED
:10591000FDF738F8618901254A1C92B2A3889142AB
:105920000DD900225B00D21A20696281002801D0C3
:1059300000F0BEF8280070BD0025628992B25B00BD
:105940009A42F1DBEFE75A00521A821892B2C9E785
:10595000C01881B26181CEE7F8B50400C0680F00BD
:10596000002803D00121494200F0CAF82589208986
:105970006189A288ADB283B28EB2884228D39B1BC4
:105980009BB29A4209D8E679F60906D1E068002868
:1059900001D000F08DF83000F8BD2B0095421CD3EB
:1059A0009B1A9BB29342FBD2E28820685204520CAD
:1059B00053433900C018FCF7E5FF6B1C9BB2A2886B
:1059C0009D4216D9002352009B1A01262381DDE750
:1059D0005100891B5B189BB2D3E7E2882068520410
:1059E000520C53433900C018FCF7CCFF0135A28894
:1059F000ABB252009342E8DBE6E7C04610B50400C4
:105A0000C068002803D00121494200F079F82069DC
:105A1000002803D00121494200F072F80023E06819
:105A200063812381002801D000F042F8206900281A
:105A300001D000F03DF8012010BDC04603008446AF
:105A40009B070BD00300032102E001330B4206D079
:105A50001A78002AF9D16246981A7047030019682B
:105A60000C4A0D488A188A4302420FD15968094AE4
:105A700004338A188A43024208D15968054A04331C
:105A80008A188A430242F1D000E001331A78002AD2
:105A9000FBD1E0E7FFFEFEFE80808080F8B5C046C7
:105AA00001B40248844601BC604700BFE103002006
:105AB00001B40248844601BC604700BFE5010020F4
:105AC00001B40248844601BC604700BF7D05002048
:105AD00001B40248844601BC604700BF5103002066
